:020000040800F2
:10000000B8060020350200083F1D0008371D000813
:100010003B1D0008F11900087D27000800000000C2
:100020000000000000000000000000008D23000818
:10003000F5190008000000005D220008A124000856
:100040004F0200084F0200084F0200084F0200084C
:100050004F0200084F0200084F0200084F0200083C
:100060004F0200084F0200084F0200084F0200082C
:100070004F0200084F0200084F0200084F0200081C
:100080004F0200084F0200084F0200084F0200080C
:100090004F0200084F0200084F0200084F020008FC
:1000A0004F0200084F0200084F0200084F020008EC
:1000B0004F0200084F0200084F0200084F020008DC
:1000C0004F0200084F0200084F0200084F020008CC
:1000D0004F02000805250008512500089D2500084D
:1000E0004F0200084F0200084F02000800F002F81B
:1000F00000F090F80AA090E8000C82448344AAF132
:100100000107DA4501D100F085F8AFF2090EBAE82F
:100110000F0013F0010F18BFFB1A43F0010318473B
:10012000904B0000B04B0000103A24BF78C878C153
:10013000FAD8520724BF30C830C144BF04680C60ED
:10014000704700000023002400250026103A28BF35
:1001500078C1FBD8520728BF30C148BF0B60704739
:100160006E2900F03B81702900F07D82662903F042
:10017000AC85652903F0A985672903F0A685612967
:10018000AFF3008003681B0A28BF41F08001692992
:1001900000F0E880642900F0E580752900F0E28035
:1001A0006F2900F00B82782900F04982E92900F0DC
:1001B000A581E42900F0A281F52900F09F81EF29B3
:1001C00000F00882F82900F048820368DB0928BFA4
:1001D00041F08001632900F0CA85732900F0CF85C2
:1001E000E32900F0DA85F32900F0DF85002070476D
:1001F0001FB500F02BFE04000020002102F0C8FD16
:10020000401C60600020002102F0ACFDE0601FBDDA
:1002100010B510BD00F0EDFD1146FFF7E9FF02F04B
:1002200055FC00F0C5FE03B4FFF7F2FF03BC00F07D
:1002300009FF00000948804709480047FEE7FEE73C
:10024000FEE7FEE7FEE7FEE7FEE7FEE7FEE7FEE786
:1002500004480549054A064B70470000A5240008DC
:10026000ED000008B8000020B8060020B802002009
:10027000B80200201CB50C46064B7B446946009032
:10028000204600F0C4F804460020694600F0D2F889
:1002900020461CBDB701000070477047704770B51D
:1002A000044685690068C10601D5302600E0202695
:1002B000C00707D070BDD4E9012130469047206ABD
:1002C000401C20626D1EF6D570BD70B50446856970
:1002D0000078C00707D170BDD4E9012120209047E4
:1002E000206A401C20626D1EF6D570BD09684A0563
:1002F00001D540B27047C905FCD500B27047096806
:100300004A0501D5C0B27047C905FCD580B2704717
:1003100070B50C460546012A05D02878800600D520
:10032000EA69002302E0012305E05B1C934202D24C
:10033000E05C0028F9D1A869E618C01AA861286A0B
:10034000184428622846FFF7AAFF04E0D5E90121F6
:1003500014F8010B9047B442F8D32846FFF7B5FFD5
:1003600070BD00002DE9F041064600241068752993
:10037000314616A510D0FFF7B9FF002802DA404237
:1003800013A507E031688A0701D512A502E04907E5
:1003900004D511A5012401E0FFF7B1FF00210A22D5
:1003A00006F1240709E0B0FBF2FCB0FBF2F302FB1C
:1003B0001C00303078541846491C0028F3D12346DD
:1003C0002A463046BDE8F04100F061BA0000000066
:1003D0002D0000002B0000002000000011680268C2
:1003E000006A530501D508700AE0D30501D50880DD
:1003F00006E0130603D5C217C1E9000200E0086059
:100400000120704701694A1C02610878704700B5F5
:100410008FB0CDE901310021059105497944CDE93D
:1004200003101146684600F029F90FB000BD000026
:10043000E5FFFFFF0A6802F8010B0A607047000041
:100440002DE9FF5F15468A460446DFF8AC80F84484
:100450000027D8E900103E46CDE9001010E03AF838
:1004600016106A4602A800F0A4FC411C07D02178AF
:10047000890603D5E269391891420DD80744761CE4
:100480002078800602D5E069B84205DDAE42E6DBA1
:100490003AF816000028E2D1A069C01BA0612046EE
:1004A000FFF7FDFED8E90010CDE90010002017E0AD
:1004B0003AF818106A4602A800F07BFCB0F1FF3F42
:1004C00081460BD000250DF1080B05E0D4E9012190
:1004D0001BF8050090476D1C4D45F7D308F101004E
:1004E000B0428046E4DB206A384420622046FFF7B1
:1004F000ECFEBDE8FF9F0000864700002DE9F041BB
:100500008046D21D22F007020025D2E90002F5291B
:1005100015A614D0011E72F1000106DA0023D0EBFB
:10052000030063EB020211A608E0D8F800108B0765
:1005300001D50FA602E0490701D50EA601251146F7
:10054000002408F1240704E000F05CF930323A5549
:10055000641C50EA0102F7D12B4632462146404640
:10056000BDE8F04100F093B9000000002D0000004C
:100570002B0000002000000030B4002100F1240412
:1005800008E002F00705D208303542EA4372DB0882
:100590006554491C52EA0305F3D10468002310A2F4
:1005A000250708D504F020040C4304D0C4690123B6
:1005B0000CA2641EC46130BC00F069B910B50446D9
:1005C00021461068FFF79BFE02462046BDE810401A
:1005D0000023D1E7D21D22F00701D1E90023CBE7A8
:1005E0000000000030000000F0B40D46018809054D
:1005F00002D5214C7C4402E01F4C7C440E34002187
:1006000000F1240608E002F00F071209E75D42EA54
:1006100003721B097754491C52EA0307F3D102788D
:100620000023120704D5702D06D009B1022311341E
:100630002246F0BC00F02BB901231034F8E770B566
:1006400004460D4621461068FFF759FE024629462A
:100650002046BDE870400023C6E7D21D22F0070304
:10066000D3E90023C0E70368126843F02003036066
:100670000823C3610023B7E7E84500002DE9F05FD8
:10068000894604464FF0000ADFF874B1FB44C0F815
:1006900020A02046E1688847002874D0252806D08D
:1006A000D4E901219047206A401C2062F1E700262E
:1006B0005F462046E16888472028054607DB312D44
:1006C00005D2781910F8200C08B10643F1E7B007FD
:1006D00001D526F00406C4F81CA00027C4F818A011
:1006E0002A2D09D0284602F087F938B304EB870891
:1006F000303DC8F8185019E059F8041B204604EBA7
:1007000087029161E1688847012F054618D1E069A9
:10071000002820DA26F020061DE0D8F8180000EBAB
:10072000800005EB40003038C8F818002046E1682A
:100730008847054602F060F90028EED1012F0AD063
:100740002E2D08D12046E16888477F1C0546022FE0
:1007500046F02006C4DBA069002803DA404246F0D8
:100760000106A061F00701D026F010066C2D0BD019
:10077000682D09D04C2D39D06A2D35D0742D35D047
:100780007A2D33D016E038E0E1682F4620468847BE
:10079000B842054609D16C2F26D04FF48060E1683D
:1007A000064320468847054604E06C2F1AD04FF4D4
:1007B000807006430DB3A5F14100192802D82035F9
:1007C00046F400664A462946204626604E46FFF714
:1007D000C7FC80B101280BD0F61D26F0070000F100
:1007E000080956E74020E4E78020D8E70020D6E754
:1007F00006F104094DE7284652E7206ABDE8F09F5C
:100800007845000030B5B0F10A024FEA900E71F160
:1008100000034EEA817EB0EB0E0061EB91014FEADE
:10082000101E4EEA017E10EB0E0041EB11114FEA53
:10083000102E4EEA016E10EB0E0041EB11214FEA33
:10084000104E4EEA014E10EB0E0041EB11414018E4
:1008500041F100014FEAD00040EA41704FEAD10176
:1008600010EB80054FEA810444EA907444EB0104E4
:100870006D1944EB0404521BA3414FF0000348BF21
:100880000A3200D530BD401C41F1000130BD2DE9D8
:10089000F0470D4699469246044600F12408016847
:1008A000880604D5E06921F01001216000E00120F4
:1008B000A84201DD471B00E00027A1697A1902EB7D
:1008C0000900081AA0612078C00602D42046FFF76C
:1008D000E6FC002608E0D4E901211AF8060090475A
:1008E000206A401C761C20624E45F4DB2078C0064E
:1008F0000AD52046FFF7D3FC06E0D4E901213020D9
:100900009047206A401C2062381EA7F10107F4DCE2
:1009100007E0D4E9012118F805009047206A401C3F
:100920002062281EA5F10105F3DC2046FFF7CDFC6F
:100930002078000602D50220BDE8F0870120FBE701
:1009400070472DE9FF4F0C461E464FF0FF378BB026
:10095000D2E90001DDF860800A908A46C1F30A55A9
:1009600005B93D46002108464FF00000BAF1000FDE
:1009700000F4400005DA00EB80004FF4400101EA8A
:1009800050004FEA9059B9F1010F00DDB9460A98BD
:1009900050EA4A000ED044F61050A5F2FF35454308
:1009A0002F14B8F1000F1ED07542291E1EDDC9F1AB
:1009B00000021CE0B8F1010F4FF0000001D030211F
:1009C00003E0F24305E02154401CB042FBDB30461B
:1009D0000022002121540B99C1F80880C1E90020B0
:1009E0000FB0BDE8F08FBD1B6D1CDEE74A4600DA94
:1009F000694206A800F06EFA06AB93E8070003AB65
:100A000083E8070050460A9900F023FB8DE80700B1
:100A1000A0F500501F3800900398002D09DD42F228
:100A20001F014A46084403A90390684600F082FD6E
:100A300008E0A0F500504A461F3803A90390684615
:100A400000F08CFD8DE807000004000C03D04FF08F
:100A5000FF30410800E01046B8F1000F03D000223B
:100A6000009215461EE0751E05D4FFF7CBFE30320E
:100A700062556D1EF9D5B3460122084302D000220B
:100A80007F1C04E02078302801D100227F1E002A3C
:100A9000099786D01DE0112D07DAFFF7B3FE30323B
:100AA00062556D1C50EA0102F5D1084302D000984E
:100AB000C8B10EE00021681E05E0235C625C63544F
:100AC0002254401E491C8142F7DBAB46A81B401E46
:100AD0000990002004F80B000B98099AC0F80880D0
:100AE000C0E9002B7CE711264FF0000859E72DE9FB
:100AF000F04F88460446D21D22F0070191B0D1E99B
:100B00000001CDE90A0101F063FF02460B98C00F16
:100B100001D02D2007E02068810701D52B2002E0BD
:100B2000202101EAC000032A099001D0072A05DB31
:100B300003464146204600F08DF90BE120788006FF
:100B400001D5E06900E00620B8F1650F814606D0C6
:100B5000B8F1660F18D0B8F1670F70D131E00020FE
:100B6000B9F1110F009001DB112301E009F101033C
:100B70000AAA01A90CA8FFF7E4FEDDE90C70002623
:100B800009F10105834647E001204B4600904FF0F4
:100B900000470AAA01A90CA8FFF7D3FEDDE90DB0B2
:100BA0000C995D46002610B909F101000D18B9EB4A
:100BB000050003D4C0F1FF3609F10105A5EB0900DA
:100BC0002BE0B9F1010F01DA4FF001090020B9F172
:100BD000110F0090484601DD112300E003460AAAE8
:100BE00001A90CA8FFF7ADFEDDE90C704D4600260B
:100BF0008346207800070AD4AB4500DA5D4601A899
:100C0000012D04DD411911F8011C302907D04F4591
:100C100002DA17F1040F04DA012082460FE06D1E9C
:100C2000EEE7002F02DCED1B3E4403E0781CA842F7
:100C300000DD7D1CB81B00F1010A4FF00047207851
:100C4000000703D4AA4501DB4FF0FF3A0021B7F1BA
:100C5000004F0DF143088DF8431024D002202B23C0
:100C6000002F01DA7F422D230A21021EA0F101008C
:100C700000DC5FB197FBF1FC97FBF1F201FB1C7C00
:100C800017460CF1300C08F801CDEEE7A8F1010091
:100C900003702188090501D5452100E06521A0F1F7
:100CA000010800F8011C09980FA9A1EB0807FF1D16
:100CB00000B10120411901EBEA70A1693844081A1A
:100CC000401EA0612078C00602D42046FFF7E7FA54
:100CD000099828B1D4E901219047206A401C20627C
:100CE0002078C00622D52046FFF7D9FA1EE0002E54
:100CF00004DBB34502DD01A8805D00E03020D4E9CB
:100D000001219047206A401C2062761CAAF1010054
:100D10005FEA000A0AD100F099F8C0680168405CF7
:100D2000D4E901219047206A401C2062281EA5F1C9
:100D30000105DCDC07E0D4E9012118F8010B90473C
:100D4000206A401C2062381EA7F10107F3DC204610
:100D5000FFF7BBFA032011B043E610B5436913B1A6
:100D6000AFF3008001E0FFF7D3FA012010BD127845
:100D700000F124010A7000224A700122EDE7116897
:100D80004FF0FF32E9E710B5436913B1AFF30080CC
:100D900001E0FFF755FB012010BD128800F124018E
:100DA00082840022C2840122EDE711684FF0FF32F5
:100DB000E9E770B516460C46054600F03FF80368B3
:100DC00093F80101012806D0FF2C0FD8185D68B1F7
:100DD00001202C7070BDD3F807013246214603F282
:100DE000071303442846BDE8704018474FF0FF3012
:100DF00070BD754600F0E2F8AE4605006946534600
:100E000020F00700854618B020B5FFF721FABDE8AD
:100E100020404FF000064FF000074FF000084FF061
:100E2000000B21F00701AC46ACE8C009ACE8C009F2
:100E3000ACE8C009ACE8C0098D46704710B500F0B9
:100E400005F8001D10BD00BF491F00000048704795
:100E5000740000202DE9F0411F4604460326016876
:100E6000072A01F4006004DB08B116A505E016A509
:100E700003E008B115A500E015A521F010002060E1
:100E8000A069C01EA0610FB1401EA0612046FFF7FF
:100E900006FA4FB1D4E9012138469047206A401C38
:100EA0002062C01C206206E0206AFAE7D4E9012132
:100EB00015F8010B9047761EF8D22046FFF705FA89
:100EC000BDE8F0814E414E006E616E00494E460015
:100ED000696E66002DE9F047814616468AB03348B0
:100EE00078440DC88DE80D0030487844801C03AC70
:100EF0000DC884E80D0041F69B300844372190FB73
:100F0000F1F290FBF1F5A5F1800501FB12041B3C09
:100F100002D56442012000E00020DFF890A0804666
:100F20000027FA44AAF1BE0A0DE0E00709D03246D4
:100F3000684607EB47010AEB810100F00FFB8DE8E3
:100F4000070064107F1C002CEFD1184F7F44AC3F8A
:100F500018E0E80714D007EB04100DF1180A90E828
:100F60000E008AE80E00C068F04201D1981908907E
:100F7000324606A903A800F0F1FA03AB83E80700A4
:100F80006D10641C002DE4D132466946B8F1000FA3
:100F900003A802D000F0CEFA01E000F0DFFAC9E9C0
:100FA0000001C9F808200AB0BDE8F087B43D000090
:100FB0000446AFF300802046FFF735F9004870473C
:100FC000540000204FF0013C50F8042B51F8043B32
:100FD0009A4221D1A2EB0C03934313EACC1317D10D
:100FE00050F8042B51F8043B9A4215D1A2EB0C03A4
:100FF000934313EACC130BD150F8042B51F8043B64
:101000009A4209D1A2EB0C03934313EACC13DBD031
:101010004FF00000704700BFD01A01BAB1FA81F159
:1010200001F0180122FA01F0CB40C1F12001DBB23E
:10103000C0B2C01A2CFA01F3D11A914311EAC311BC
:10104000E6D1704701491820ABBEFEE7260002003A
:1010500070475FEA400C08BF91F0000F4FEA8C2305
:101060004FEAC12243EA51514FEA1C5018BF00F524
:10107000F0404FEA300018BF41F000415FEA6C5C7D
:1010800000F02980BCF1FF3F08BF40F0804070476E
:10109000130C06BF12044FF0100C4FF0000C130E8F
:1010A00004BF12020CF1080C130F04BF12010CF163
:1010B000040C930F04BF92000CF1020CD30F04BF79
:1010C00052000CF1010C11464FF00002A0F11F007C
:1010D000A0EB0C00704711F0004F08BF704731F0D3
:1010E00000413FF4D5AF0B0C06BF09044FF0100CC4
:1010F0004FF0000C0B0E04BF09020CF1080C0B0F93
:1011000004BF09010CF1040C8B0F04BF89000CF122
:10111000020CCB0F04BF49000CF1010CCCF12003F1
:10112000A0EB0C0022FA03F302FA0CF241EA0301ED
:1011300000F10100704720F07F4C80EA030023F0AB
:101140007F47ACEB070303F57C5300F0004003F14D
:10115000FF032DE980494FEA154B09B44FEA1443C8
:1011600025EA0B4E24EA03480FF2042606EB132768
:1011700049083E785FEA320203FB0667C7F50007BD
:1011800007FB06F64FEA54374FEAD64606F1020649
:1011900007FB066CCCF1005C4FEA1C472CEA074CBD
:1011A00007FB06F40CFB06F504EB15464FEA961612
:1011B00034BF00204FF000404FEAD13706FB07FC58
:1011C0004FEA1C4C0CFB0BF7D21B03FB0CF761EB3B
:1011D00007010CFB0EF7B0EB074072EB17420CFB5C
:1011E00008F734BFA2EB0742B2EB074261EB1741AD
:1011F0004FEA0C444FEA910706FB07FC4FEA1C4CF0
:101200000CFB0BF7B0EBC74072EB573203FB0CF74C
:1012100034BFA2EBC742B2EBC74261EB57310CFBC4
:101220000EF7B0EBC70072EB57720CFB08F734BF38
:10123000A2EBC702B2EBC70261EB5771039F4FEA03
:10124000816141EA921104EBCC044FEAD1374FEAB5
:10125000826206FB07FC42EA90124FEA80604FEA86
:101260001C4C0CFB0BF7D21B03FB0CF761EB0701CB
:101270000CFB0EF7B0EB074072EB17420CFB08F7C4
:1012800034BFA2EB0742B2EB074261EB17414FEAD2
:101290008C554FEA910704EB9C2406FB07FC4FEAB0
:1012A0001C4C0CFB0BF7B0EBC74072EB573203FB47
:1012B0000CF734BFA2EBC742B2EBC74261EB573128
:1012C0000CFB0EF7B0EBC70072EB57720CFB08F784
:1012D00034BFA2EBC702B2EBC70261EB577115EB4B
:1012E0004C254FEA816141EA92114FEA82624FEA4E
:1012F000D13742EA901206FB07FC44F100044FEAA2
:1013000080604FEA1C4C0CFB0BF7D21B03FB0CF765
:1013100061EB07010CFB0EF7B0EB074072EB1742D5
:101320000CFB08F734BFA2EB0742B2EB074261EBBC
:10133000174115EB1C154FEA813141EA92414FEA02
:10134000823242EA90424FEA80304FEA0C7644F112
:10135000000448EA03434EEA0B484FF0000EB2EB9C
:10136000080C71EB030724BF624639464EEB0E0EA4
:101370004FF0000B0018524149414BEB0B0BB2EB05
:10138000080C71EB03077BF1000B24BF6246394662
:101390004EEB0E0E4FF0000B0018524149414BEB43
:1013A0000B0BB2EB080C71EB03077BF1000B24BFB6
:1013B000624639464EEB0E0E51EA020718BF46F060
:1013C000010616EB0E7655F1000254F1000103D52B
:1013D000BDE88901BDE80088BDE88901BDE8004895
:1013E000B619524141EB0101A3F10103704780801E
:1013F0007F7E7D7C7B7A797877767675747372716F
:1014000071706F6E6E6D6C6C6B6A6A696868676626
:1014100066656464636362616160605F5F5E5E5DB8
:101420005D5C5C5B5B5A5A5959585857575656552C
:1014300055555454535352525251515050504F4F8E
:101440004F4E4E4D4D4D4C4C4C4B4B4B4A4A4A49DE
:101450004949484848474747474646464545454421
:101460004444444343434342424242414141002BAE
:1014700026D4770021D01CB54FEA370703B44FF0CC
:1014800010004FF010014FF000000FBCBDE81040FD
:101490000BF1010BBBF1010F08BF5FEA170722BF79
:1014A00012F1010211F101014FF0004143F100037B
:1014B00000F0004043EA00007047F9D35708DAE72C
:1014C00046EA064613F1400F4FEA16461FDD13F1B8
:1014D000200FDFBF16430A46002120335B42C8D0ED
:1014E000C3F1200746EA064602FA07F74FEA164616
:1014F00046EA0706C3F1200722FA03F201FA07F7CA
:1015000021FA03F14FF0000342EA0702B1E746EA8D
:10151000020646EA06464FEA164646EA0106BCBF00
:1015200046EA0646360C4FF000034FF000024FF03B
:1015300000019EE72DE9C048934630B491E8380099
:1015400007C831EA400C48BF34EA430C03D5FFF723
:10155000F2FDFFF78CFFF0BCBDE800882DE9C04824
:10156000934630B491E8380007C810F0804F08BFA8
:1015700013F0804F03D100F005F8FFF778FFF0BCBF
:10158000BDE8008820F07F4780EA030023F07F4C0D
:1015900007EB0C03A3F57C5300F00040A3F1FE031E
:1015A00092F0000F00F0B38095F0000F00F077800C
:1015B0002DE901494FEA11404FEA144621EA00485B
:1015C00000FB06FC24EA064708FB06F607FB08F8C2
:1015D00000FB07F718EB06484CEB164C4FEA124B92
:1015E00018EB07484FEA15464CEB174022EA0B4E22
:1015F0000BFB06FC25EA06470EFB06F607FB0EFE74
:101600000BFB07F71EEB064E4CEB164C4FF000069B
:101610001EEB074E4CEB174B18EB0B0840F100008C
:1016200018EB0E0B58EB000840F100008F1A4FF03A
:1016300000013CBFC943661B14BFB5EB040C00217D
:101640003CBFC943F61B4FEA17444EEA8E0E27EA09
:1016500004454FEA1C4704FB07622CEA074C05FBD4
:1016600007F70CFB05F604FB0CFC16EB074642EBF8
:10167000174216EB0C4642EB1C421BEB060658EBDE
:101680000202414146EA9E0601D5BDE80189B6192C
:10169000524141EB0101A3F10103BDE801894FEA89
:1016A00014454FEA114724EA054621EA074C05FB99
:1016B00007F406FB07F70CFB06F105FB0CFC11EB2E
:1016C000074144EB17444FEA124711EB0C4144EB3E
:1016D0001C4422EA074C05FB07F206FB07F70CFB4C
:1016E00006F605FB0CFC16EB074642EB174216EB21
:1016F0000C4642EB1C456A1854F1000148BF704784
:10170000B619524141EB0101A3F10103704795F075
:10171000000F37D04FEA11424FEA144721EA024640
:1017200024EA074C02FB07F106FB07F70CFB06F463
:1017300002FB0CFC14EB074441EB17414FEA154741
:1017400014EB0C4441EB1C4125EA074C02FB07F566
:1017500006FB07F70CFB06F602FB0CFC16EB074634
:1017600045EB174516EB0C4645EB1C42121951F19F
:10177000000148BF7047B619524141EB0101A3F186
:10178000010370474FEA14454FEA114724EA054622
:1017900021EA074C05FB07F106FB07F70CFB06F2F5
:1017A0004FF0000605FB0CFC12EB074241EB174122
:1017B00012EB0C4251EB1C4148BF7047921841EBB1
:1017C0000101A3F10103704721B1826842F00102D7
:1017D000826003E0826822F0010282607047014665
:1017E00000208A6802F004020AB1012000E0002013
:1017F00070470146C86C80B27047024600201368EB
:101800000B400BB1012000E0002070470146002092
:101810008A6802F008020AB1012000E00020704747
:1018200030B502460020002350680F4C20400D794F
:101830000C6844EA05242043506090680B4C20401B
:10184000D1E902542C434D7944EA45042043906089
:10185000D06A20F470000C7C641EE4B2234340EA9A
:101860000350D06230BD0000FFFEF0FFFDF7F1FF36
:10187000F0B504460D4600200021092D11DDE06879
:10188000A5F10A0606EB4607072606FA07F1884384
:10189000A5F10A0606EB460603FA06F10843E060E6
:1018A0000CE0206905EB4507072606FA07F1884397
:1018B00005EB450603FA06F108432061072A0FDA13
:1018C000606B561E06EB86071F2606FA07F1884353
:1018D000561E06EB860605FA06F10843606322E011
:1018E0000D2A0FDA206BD61F06EB86071F2606FA95
:1018F00007F18843D61F06EB860605FA06F1084372
:10190000206310E0E06AA2F10D0606EB86071F26B1
:1019100006FA07F18843A2F10D0606EB860605FAE2
:1019200006F10843E062F0BD816841F00801816082
:10193000704721B1826842F4A002826003E08268AD
:1019400022F4A00282607047816841F00401816046
:101950007047000000B587B001214FF4017000F01E
:101960009BFC4FF4004000F07BFC0120ADF804002C
:1019700000208DF8070001A91B4800F01BF9022088
:10198000ADF8040000208DF8070001A9164800F00A
:1019900011F9002002908DF80C008DF80D004FF425
:1019A000602004900020059001208DF8180002A905
:1019B0000E48FFF735FF01210C48FFF705FF0B48E4
:1019C000FFF7B2FF00BF0948FFF720FF0028FAD158
:1019D0000648FFF7B9FF00BF0448FFF700FF0028E3
:1019E000FAD107B000BD000000080140002401400A
:1019F00000BFFEE7704700002DE9FF5F86B0144688
:101A00001D464FF0010A00200390049005904FF00E
:101A10000109002600BF83460022134620462946BE
:101A200001F07EFC09D285F00040CDE9004020465F
:101A3000019901F001FC064604E02046294601F028
:101A4000FBFB0646304601F054FC22462B46CDE90E
:101A5000000101F09FFD074688460022544B38469E
:101A6000414601F099FCCDE9000101F015FC8346E7
:101A700007E009EB89004FEA40090AF1010000F094
:101A8000FF0A0A2096FBF0F090FBF9F00028F0D155
:101A900042F2107096FBF0F00A2190FBF1F201FB8C
:101AA0001200C0B28DF80C004FF47A7096FBF0F083
:101AB00090FBF1F201FB1200C0B28DF80D00642022
:101AC00096FBF0F090FBF1F201FB1200C0B28DF832
:101AD0000E000A2096FBF0F090FBF1F201FB1200E1
:101AE000C0B28DF80F000A2096FBF0F100FB1160E8
:101AF000C0B28DF810002E208DF811004FF47A70CE
:101B0000BBFBF0F00A21B0FBF1F201FB12008DF8F3
:101B100012006420BBFBF0F0B0FBF1F201FB1200FD
:101B20008DF813000A20BBFBF0F0B0FBF1F201FBD3
:101B300012008DF814000A20BBFBF0F100FB11B07D
:101B40008DF8150000211498801D03AA11548946B0
:101B500008E003A810F80900303003A901F80900D3
:101B600009F10109B9F10A0FF3DB002213462046FF
:101B7000294601F0D5FB08D20AF1010000F0FF0A66
:101B80002D20CAF1050103AA50542E208DF8110012
:101B900000211498801D03AA1154CAF1050003A95D
:101BA0004218DDE9061000F0E3F90AB0BDE8F09F45
:101BB0000088C3402DE9F0410246002500260020A0
:101BC00000230024002791F803C00CF00F0591F8C2
:101BD00003C00CF0100CBCF1000F03D091F802C050
:101BE0004CEA050591F800C0BCF1000F31D0146833
:101BF00000202BE04FF0010C0CFA00F3B1F800C00C
:101C00000CEA03069E4220D183004FF00F0C0CFA21
:101C100003F7BC4305FA03FC4CEA040491F803C043
:101C2000BCF1280F06D14FF0010C0CFA00FCC2F8F1
:101C300014C00AE091F803C0BCF1480F05D14FF081
:101C4000010C0CFA00FCC2F810C0401C0828D1D3CB
:101C50001460B1F800C0BCF1FF0F34DD54680020FF
:101C60002EE000F1080C4FF0010808FA0CF3B1F86F
:101C700000C00CEA03069E4221D183004FF00F0CF6
:101C80000CFA03F7BC4305FA03FC4CEA040491F890
:101C900003C0BCF1280F05D100F1080C08FA0CF8BC
:101CA000C2F8148091F803C0BCF1480F07D100F1CD
:101CB000080C4FF0010808FA0CF8C2F81080401C1C
:101CC0000828CED35460BDE8F081416170470161BE
:101CD0007047000010B50446002301222146094840
:101CE000FFF7C6FD01210748FFF723FE00BF0221D1
:101CF0000448FFF782FD0028F9D00248FFF779FD7C
:101D000010BD0000002401402DE9F04107460C46BB
:101D10000025002608E03846FFF7DCFF05440520D3
:101D200000F094FE701CC6B2A642F4DBB5FBF4F0E2
:101D300080B2BDE8F08100BFFEE700BFFEE770475C
:101D400070B5002100230F22C47804B3154C246819
:101D500004F4E064C4F5E064210AC1F10403CA405C
:101D6000447804FA03F184781440214309010E4CAD
:101D70000678A155047804F01F050124AC400578CD
:101D80006D11AD0005F1E025C5F8004109E00478CA
:101D900004F01F050124AC40044D0678761145F887
:101DA000264070BD0CED00E000E400E080E100E0C2
:101DB00002490143024A1160704700000000FA0521
:101DC0000CED00E070B5002419E004F1B001C8B2D8
:101DD000002100F0BDF90021084600F0B9F900210A
:101DE000102000F0B5F9002505E00121002000F0E9
:101DF000AFF9681CC5B2802DF7DB601CC4B2082C9B
:101E0000E3DB70BD07E040F2375100BF0A00A1F1EB
:101E10000101FBD1401E0028F5D1704770B5064680
:101E2000002415E004F1B001C8B200F0BDF90120B2
:101E300000F0BAF9102000F0B7F9002504E03046B0
:101E400000F0DEF9681CC5B2802DF8DB601CC4B25E
:101E5000082CE7DB70BD000008B50121042000F06C
:101E60001BFAF020ADF8000003208DF802001020CE
:101E70008DF8030069463D48FFF79CFE10213B4862
:101E8000FFF725FF40213948FFF71FFF3220FFF7FA
:101E9000B9FF40213548FFF71AFF0021AE2000F0BE
:101EA00027F90021D52000F023F90021802000F03F
:101EB0001FF90021A82000F01BF900213F2000F0AD
:101EC00017F90021D32000F013F90021084600F093
:101ED0000FF90021402000F00BF900218D2000F0C7
:101EE00007F90021142000F003F90021202000F060
:101EF000FFF80021022000F0FBF80021A12000F0F3
:101F0000F7F80021C82000F0F3F80021DA2000F0F3
:101F1000EFF80021122000F0EBF80021812000F002
:101F2000E7F80021EF2000F0E3F80021D92000F0CD
:101F3000DFF80021F12000F0DBF80021DB2000F0C9
:101F4000D7F80021402000F0D3F80021A42000F0B1
:101F5000CFF80021A62000F0CBF80021AF2000F040
:101F6000C7F80020FFF75AFF08BD00000008014035
:101F70002DE9F04706460F46904600250024A1466D
:101F800031E018F809002038C5B2782E02DD0026AD
:101F9000781CC7B23946304600F02EF8002407E01E
:101FA00004EB0511134A505C00F02AF9601CC4B21E
:101FB000082CF5DB781CC1B2304600F01DF8002477
:101FC00008E004EB051108310A4A505C00F018F9EA
:101FD000601CC4B2082CF4DB06F10800C6B209F19B
:101FE000010000F0FF0918F809000028C9D1BDE878
:101FF000F0870000E73F000870B504460D4605F184
:10200000B001C8B200F0D0F8102141EA141000F07D
:10201000CBF804F00F0000F0C7F870BD70B50446AF
:102020000D4605F1B001C8B2002100F091F8102171
:1020300041EA1410002100F08BF804F00F0141F088
:102040000100002100F084F870BD00002DE9F0418E
:1020500007460E469046A8F12000C5B27F2F02DD4C
:102060000027B01CC6B231463846FFF7D7FF002420
:1020700008E004EB05110F4A505C012100F068F8FC
:10208000601CC4B2082CF4DB701CC1B23846FFF7E8
:10209000C5FF002409E004EB05110831054A505C36
:1020A000012100F055F8601CC4B2082CF3DBBDE838
:1020B000F0810000E73F00082DE9F04104460F469B
:1020C000154600260EE0AA5D39462046FFF7BEFF02
:1020D00004F10800C4B2782C02DD0024B81CC7B299
:1020E000701CC6B2A85D0028EDD1BDE8F0810000EB
:1020F00070B504460E4626B180211448FFF7E7FD6F
:1021000003E080211148FFF7E0FD002517E01021D2
:102110000E48FFF7DAFD04F0800020B120210B48C3
:10212000FFF7D5FD03E020210848FFF7CEFD102181
:102130000648FFF7CCFD6006040E681CC5B2082DEA
:10214000E5DB80210148FFF7C2FD70BD00080140BA
:1021500070B504460E4626B180211248FFF7B7FD40
:1021600003E080210F48FFF7B0FD002517E01021A4
:102170000C48FFF7AAFD04F0800020B12021094897
:10218000FFF7A5FD03E020210648FFF79EFD102183
:102190000448FFF79CFD6006040E681CC5B2082DBC
:1021A000E5DB70BD0008014070B5044608258021BC
:1021B0001248FFF78AFD10211048FFF786FD00BF87
:1021C00016E004F0800020B120210C48FFF77FFDCD
:1021D00003E020210948FFF778FD10210748FFF7A9
:1021E00076FD00BF10210548FFF76FFD6006040E65
:1021F0002800A5F10101CDB2E3D170BD0008014076
:1022000070B50446082580211348FFF760FD00BF24
:1022100010211148FFF759FD00BF16E004F08000BF
:1022200020B120210C48FFF752FD03E020210A488D
:10223000FFF74BFD10210848FFF749FD00BF1021B3
:102240000548FFF742FD6006040E2800A5F10101D4
:10225000CDB2E3D170BD000000080140704700001E
:1022600001460020034A506820F440400843506073
:10227000704700000010024029B1064AD2690243AB
:10228000044BDA6104E0034AD2698243014BDA610C
:10229000704700000010024029B1064A92690243CB
:1022A000044B9A6104E0034A92698243014B9A61AC
:1022B000704700000010024030B5002100220024C9
:1022C00000232D4D6D6805F00C0121B1042905D0C6
:1022D000082923D105E0294D056022E0274D05603E
:1022E0001FE0254D6D6805F47012234D6D6805F4EF
:1022F0008034022505EB92421CB9214D55430560FF
:102300000BE01D4D6D6805F400351DB11C4D5543A6
:10231000056002E0194D5543056002E0174D056068
:1023200000BF00BF144D6D6805F0F0010909154D9F
:102330006B5C0568DD4045600F4D6D6805F4E0613C
:10234000090A104D6B5C4568DD4085600A4D6D687B
:1023500005F46051C90A0B4D6B5C4568DD40C560F2
:10236000054D6D6805F44041890B074D6B5CC568F0
:10237000B5FBF3F5056130BD0010024000127A0094
:1023800000093D002200002032000020704710B5F7
:1023900000F002F810BD00000CB500200190009084
:1023A0003348006840F480303149086000BF30484D
:1023B000006800F4003000900198401C01900098E3
:1023C00018B90198B0F5A06FF1D12948006800F460
:1023D000003010B10120009001E000200090009832
:1023E000012843D12348006840F0100021490860CB
:1023F0000846006820F0030008600846006840F0C6
:10240000020008601A484068194948600846406858
:1024100048600846406840F480604860084640686C
:1024200020F47C1048600846406840F4E81048609A
:102430000846006840F08070086000BF0C480068E3
:1024400000F000700028F9D00948406820F003002F
:10245000074948600846406840F00200486000BFF5
:102460000348406800F00C000828F9D10CBD0000BA
:102470000010024000200240042808D14FF0E02163
:10248000096941F004014FF0E022116107E04FF0CB
:10249000E021096921F004014FF0E0221161704749
:1024A0007047000010B51348006840F00100114962
:1024B000086008464068104908400E4948600846D0
:1024C00000680E4908400B4908600846006820F47F
:1024D000802008600846406820F4FE0048604FF401
:1024E0001F008860FFF753FF4FF000600449086049
:1024F00010BD0000001002400000FFF8FFFFF6FED4
:1025000008ED00E010B540F225510E4800F076F8D5
:10251000B0B10D480088092802DB00200A49088074
:102520000848001D0088C1B2074802880088401C86
:10253000054B1880054881542021024800F03CF8E2
:1025400010BD0000003801401C00002038000020B1
:1025500010B540F225510E4800F050F8B0B10D48CA
:102560000088092802DB00200A4908800848001D6D
:102570000088C1B2074802880088401C054B1880BB
:10258000054881542021024800F016F810BD0000D3
:10259000004400401E0000204100002010B540F221
:1025A0002551044800F02AF818B12021014800F014
:1025B00003F810BD0048004001F40072B2F5007F3E
:1025C00000D100BFCA430280704721B1828942F422
:1025D0000052828104E082894DF6FF731A408281A5
:1025E000704702460020B1F5007F00D100BF13887C
:1025F0000B400BB1012000E00020704770B502468F
:10260000002400230025002040F66A16B14200D1C4
:1026100000BFC1F3421501F01F03012606FA03F3C0
:10262000012D02D19689334006E0022D02D1168A8F
:10263000334001E0968A33400C12012606FA04F476
:102640001688344013B10CB1012000E0002070BDA9
:10265000F0B50346002400260025002040F66A1746
:10266000B94200D100BF1846C1F3421401F01F0661
:10267000012707FA06F5012C01D10C3004E0022CE9
:1026800001D1103000E014301AB107682F43076001
:1026900002E00768AF430760F0BD00002DE9F04796
:1026A00086B005460E460024A24600BFA14600277C
:1026B000B08900B100BF2F462C8A4CF6FF70044051
:1026C000F08804432C82AC894EF6F3100440B088A5
:1026D00031890843718908430443AC81AC8A4FF6C1
:1026E000FF400440B0890443AC8201A8FFF7E4FD39
:1026F0001F48874202D1DDF810A001E0DDF80CA0F0
:10270000A88900F4004040B10AEBCA0000EB0A10AF
:1027100031684900B0FBF1F807E00AEBCA0000EBB2
:102720000A1031688900B0FBF1F86420B8FBF0F0C2
:1027300004012009642101FB1089A88900F40040EC
:1027400040B1322000EBC900B0FBF1F000F007000F
:10275000044308E0322000EB09106421B0FBF1F0E3
:1027600000F00F0004432C8106B0BDE8F0870000A4
:1027700000380140C1F308028280704700BFFEE7C5
:1027800010B586B0044601210420FFF785FD012124
:102790008803FFF781FD18208DF817004FF40070B3
:1027A000ADF8140003208DF8160005A91E48FFF7A8
:1027B00001FA04208DF817000002ADF81400032080
:1027C0008DF8160005A91848FFF7F4F901940020C8
:1027D000ADF810000C20ADF80E000020ADF80C0094
:1027E000ADF80A00ADF8080001A91048FFF756FF40
:1027F00001210E48FFF7E9FE012240F225510B4866
:10280000FFF726FF25208DF8000001208DF803003A
:1028100000208DF8010001208DF802006846FFF7C6
:102820008FFA06B010BD00000008014000380140DA
:1028300010B586B0044601210420FFF72DFD0121CB
:102840004804FFF719FD18208DF817000420ADF893
:10285000140003208DF8160005A91E48FFF7AAF9F9
:1028600004208DF817000820ADF8140003208DF81F
:10287000160005A91748FFF79DF901940020ADF84F
:1028800010000C20ADF80E000020ADF80C00ADF8E3
:102890000A00ADF8080001A90F48FFF7FFFE01216B
:1028A0000D48FFF792FE012240F225510A48FFF73A
:1028B000CFFE26208DF8000001208DF803000020B7
:1028C0008DF8010002208DF802006846FFF738FA03
:1028D00006B010BD000801400044004010B586B0AD
:1028E000044601210820FFF7D7FC01218804FFF7E7
:1028F000C3FC18208DF817004FF48060ADF8140069
:1029000003208DF8160005A91E48FFF753F904208F
:102910008DF817004002ADF8140003208DF8160062
:1029200005A91848FFF746F901940020ADF81000FA
:102930000C20ADF80E000020ADF80C00ADF80A0038
:10294000ADF8080001A91048FFF7A8FE01210E48C4
:10295000FFF73BFE012240F225510B48FFF778FEBE
:1029600027208DF8000001208DF8030000208DF84D
:10297000010003208DF802006846FFF7E1F906B078
:1029800010BD0000000C0140004800400FB430B5FD
:10299000CBB0054601AC50A8009001A8009A4F9911
:1029A000FDF768FC002000900BE014F8011B28469E
:1029B000FFF7E0FE00BF40212846FFF712FE002887
:1029C000F9D020780028F0D14BB030BC5DF814FB72
:1029D000490050EAC12018BF04204A0D18BF40F03A
:1029E000010040F2FF72B2EB515F08BF40F00200FD
:1029F000012808BF0520704730380A2801D201207D
:102A0000704700207047000010B56FF00400FFF71A
:102A100033FD0A4800680A49B0FBF1F00949087023
:102A20000846007800EB4001C1EBC0104FF6FF7183
:102A300001EAC0000449088010BD00000400002025
:102A400000127A00180000201A0000200146114AE6
:102A500012884A434FF0E0235A6100229A611A46D5
:102A6000126942F001021A6100BF4FF0E0221069C2
:102A700000F001021AB100F48032002AF5D04FF0C4
:102A8000E022126922F001024FF0E0231A610022D5
:102A90009A6170471A00002010B5FFF7B5FF4FF498
:102AA000A060FFF785F9FEF755FFFFF7D5F9FFF7AF
:102AB00089F94FF41650FFF763FE4FF41650FFF7F5
:102AC000B7FE4FF41650FFF709FF10BD86B0002483
:102AD000A146A246A34600200590049003900290D0
:102AE000FFF7DAFF10E10A210020FFF70DF987490F
:102AF00008800846008800F093FF019000F040FE37
:102B000007464FF06632824B00F046FC054600F067
:102B100055F982464FF07E51504600F095FF0190E6
:102B200000F02EFE07464FF066327A4B00F02CFA8A
:102B3000054600F043F904460A210120FFF7E4F8B6
:102B4000754908800846008800F06AFF019000F08F
:102B500017FE07464FF066326D4B00F01DFC054630
:102B600000F02CF983464FF07E51584600F06CFF80
:102B7000019000F005FE07464FF06632654B00F00D
:102B800003FA054600F01AF9814664488078152852
:102B900017D16248007900066049497940EA01404E
:102BA0005E49897940EA01205C49C979084380B2CD
:102BB0000390039800F034FF0546594900F06EFE7B
:102BC000059058488078152817D156480079000696
:102BD0005449497940EA01405249897940EA012043
:102BE0005049C979084380B20290029800F018FF5A
:102BF00005464B4900F052FE04904BA200210846C6
:102C0000FFF75AFA059800F0BBFD054602202A4658
:102C10000B46202100900020FEF7EEFE4449059867
:102C200000F0DAFD074600F0ABFD05462A460B46EC
:102C300040A14248FFF7AAFE0520FFF707FF40A288
:102C400002210020FFF738FA049800F099FD0546AC
:102C500002202A460B4620210090FEF7CDFE3A497D
:102C6000049800F0B9FD074600F08AFD05462A46A3
:102C70000B4630A13148FFF789FE0520FFF7E6FE3D
:102C800032A204210020FFF717FA204600F078FD59
:102C9000054602202A460B46202100900420FEF71C
:102CA000ABFE2C49204600F097FD074600F068FD7A
:102CB00005462A460B461FA12048FFF767FE052060
:102CC000FFF7C4FE24A206210020FFF7F5F94846CD
:102CD00000F056FD054602202A460B4620210090B2
:102CE0000620FEF789FE1E49484600F075FD07469E
:102CF00000F046FD05462A460B460EA10F48FFF799
:102D000045FE3220FFF7A2FEEDE6000000000020A5
:102D100066664A3F66660A400200002038000020CE
:102D20000000C842410000204C78313A0000000009
:102D300000247449252E32660A0000000048004035
:102D40004C78323A000000000024F4494931203A1E
:102D500000000000001B374A4932203A0000000002
:102D60000024744A10B500290AD00878002807D03A
:102D700005487844FEF726F9002801D0002010BD50
:102D80000248784410BD00005E1F0000561F00007E
:102D900010B500290AD00878002807D005487844E3
:102DA000FEF710F9002801D0002010BD0248784439
:102DB00010BD00004E1F0000461F000021F0004221
:102DC000A2F16052B2F5801F01F0004328BFD2F19A
:102DD0007F6C0BD95FEA001C43EAC20242EB5070E1
:102DE00018BF704728BF20F001007047B2F5801F60
:102DF000BCBF184670474FEA410C1CF5001F02D2B9
:102E0000084600F0E8BE70B500F070FB00000089D5
:102E1000FFF7F6BF4FF00040A0F5800070470000BC
:102E200010B591EA030F48BF83F0004300F1C68359
:102E3000841A71EB030C05D2121943EB0C03001B2F
:102E400061EB0C01DFF824E14FEA1154A4EB135CB1
:102E50001EEA430F18BF9EEA445F73D023EA0E03B5
:102E6000DCF1200E21EA045143F4801332D322FA1C
:102E70000CFE10EB0E0023FA0CFE41EB0E01CCF120
:102E8000200E03FA0EFE10EB0E0051F10001B1F519
:102E9000801FCCF1200E32D201EB045112FA0EF257
:102EA000BDE8104058BF7047401C38BF5FEA42027F
:102EB00018BF7047002814BF20F0010041F1000145
:102EC0004FEA410313F5001F38BF7047A1F1C0411D
:102ED00000F05ABB012A43EB0302ACF1200CDCF1F9
:102EE0001F0E32BF4FF0000E23FA0CF310EB03005D
:102EF00041EB0451B4EB115FD0D0A1EB045101F5CB
:102F0000801149085FEA300001EB04510ED350F103
:102F1000000038BF12FA0EFE08D1BDE81040C9E724
:102F2000401C38BF5FEA4202CAD1C3E7BDE8104087
:102F30004FEA410313F5001F38BF7047A1F1C041AC
:102F400000F022BB9EEA445F08D011EA5E0FBDE8A4
:102F5000104004BF01F0004100207047BDE8104060
:102F600070B500F0C3FA00BF64FBBE3E0000E0FF96
:102F7000491058BFC1F140415B1058BFC3F14043F5
:102F80008B42EFF3008070472DE9C04130B4DFF889
:102F9000A0C23CEA111418BF3CEA131400F0EC8004
:102FA00081EA03051CEA111444EAD57418BF1CEA2F
:102FB000131500F0C780A4EB05044FF0004545EA67
:102FC000C12145EAC32341EA505143EA525304F177
:102FD0007F74994204F500344FEAC0204FEAC222C0
:102FE00008BF904200F09C804FEA13650FF2401634
:102FF000765D4FEA134506FB05F7C7F1807706FBC0
:1030000007F74FEAD737A7FB03687642C8F5803841
:10301000A7FB06CE38BFA8F1010807FB08E64FF072
:10302000000EA6FB028CE6FB03CEDCF1000CCEF119
:10303000004E38BFAEF1010EA6FB0C584FF0000752
:103040004FF00005E6FB0E87A1FB08C6A0FB07CEEC
:1030500016EB0E0645F10005E1FB076515F1E04EA4
:103060007EBFA4F580345FEA46066D4116F1800705
:1030700045F100054FEA17274FEA066647EA05675C
:10308000A6F1DE46B6F1805F4FEA15251FD9384616
:1030900024F0010C05EBC471BCF1FE6F01EB0C11C7
:1030A00002D8F0BCBDE8008124425CBF01F5801E5F
:1030B0009EEAC47F02D4F0BCBDE80081244238D42B
:1030C000F0BCA1F1C041BDE8004100F05DBA4FEA9B
:1030D000D22242EA43524FEAD323A7FB02864FEAA9
:1030E000D02040EA415007FB03661EEA0E0F4FEA6C
:1030F000D12105FB026658BFA6EB0056B6EB005681
:103100004FEA520E4EEAC37E18EB0E0E56EB530EEC
:10311000BDD518EB02085E417F1C55F10005B6E7EE
:103120004FF480154FF000074FF000064FF00008F5
:10313000ADE7F0BC4FF0000001F1C04101F00041EB
:10314000BDE8008111EA0C1F0CEA131500D00CE059
:1031500013EA0C1F00F025804FF00000F0BC81EA5C
:10316000030101F00041BDE80081F0BCBDE8004171
:1031700081EA030100F008BAF0BCBDE8004170B577
:1031800000F0B4F9097EFC3E00F007B881EA0301C3
:103190004FF0000001F00041704781EA030100F0A8
:1031A000F3B9F0BCBDE800414FF000002149704781
:1031B000FFFDFBF9F7F5F4F2F0EEEDEBE9E8E6E4FC
:1031C000E3E1E0DEDDDBDAD8D7D5D4D3D1D0CFCD83
:1031D000CCCBCAC8C7C6C5C4C2C1C0BFBEBDBCBBBC
:1031E000BAB9B8B7B6B5B4B3B2B1B0AFAEADACABB7
:1031F000AAA9A8A8A7A6A5A4A3A3A2A1A09F9F9E91
:103200009D9C9C9B9A999998979796959594939342
:10321000929191908F8F8E8E8D8C8C8B8B8A8989D9
:10322000888887878685858484838382828181805C
:103230000000FF070000F87F4FEA41034FEA5353B5
:10324000A3F58063D3F11E03C8BFD3F1210C0CDDBD
:103250004FF0004242EAC12242EA505232FA03FCE5
:103260008CEAE17CACEBE1707047102BC4BF00200E
:10327000704703F5787CBCF1FF3F04D06FF000424B
:1032800082EA2100704770B500F030F9499224803D
:1032900000207047F2E700004FEA1153A3F5806366
:1032A000D3F11E03A8BFD3F1200C08DB4FF000427E
:1032B00042EAC12252EA505232FA03F07047094200
:1032C0000BD4102BC4BF0020704703F5787CBCF1F1
:1032D000FF3F05D04FF0FF3070474FF000007047C0
:1032E00070B500F003F900BF4992248000207047B8
:1032F000F0E710F0004248BF4042B0FA80F310FA05
:1033000003F10AD0C3F11D0303F580634FEA415076
:1033100002EB035202EBD12170474FF000007047DF
:1033200051EA030C17D41CF5801F58BFBCF5801F51
:1033300000F10680994218BF704708BF904270475D
:1033400007D711F5801F58BF13F5801F19D4994274
:103350007047894270471CF5801F08D5BCF5801F57
:10336000F7D58B4218BF704708BF824270474FF4B1
:10337000001C1CEB410F38BF1CEB430F01D28B42EA
:10338000704770B500F0B2F8922449004FF0005138
:103390004FF08053FFF7ECBDDFF848C170B51CEA71
:1033A000111E1EBF1CEA13159EEA0C0F95EA0C0FA6
:1033B00000F06F8081EA030423EA4C134EEAD47EC6
:1033C00021EA4C1141F4801143F48013AE44A1FB77
:1033D000024CA0FB0365AEF17F7E361955EB0C0560
:1033E000A1FB034C4CF10003A0FB021C16EB0C06E6
:1033F000654153F10003094218BF46F0010613F47A
:10340000007F0BD14FEA03314FEA0530340341EA24
:10341000155140EA16506FF003020AE04FEAC3214B
:103420004FEAC520F40241EA555140EA56506FF088
:10343000020202EB2E4201EB025585EACE710AD060
:103440005FEA440C18BF24F0004450F1000041F141
:10345000000120EAD47040F2FE7C624500D270BDCB
:10346000A84214BF4FF080444FF04044002E08BFE4
:103470000024BEF1806FA8BFA1F1C041BDE870403B
:1034800080F282804FF0000001F1C04101F0004164
:1034900070479EEA0C0F0CEA131518BF95EA0C0F43
:1034A00006D04FF0000081EA030E0EF0004170BD1F
:1034B00000F01CF88900013E00F007B800F009B8E0
:1034C0004FEA430C5FEA5C5C08D081EA030100F03C
:1034D0005BB84FEA410C5FEA5C5CF6D14FF000004C
:1034E000014970470000FF070000F87F0EF1020E4F
:1034F0002EF0030E5EF8046B364205D4012A43EB2E
:10350000030515F5001F12D8012841EB010C1CF52D
:10351000001F0CD80ED14FEAD17C15F5001F0CEB23
:103520004C0C0CF1020C08BF4CEBD37C04E04FF0C8
:10353000080C01E04FEAD37C0CEB4C0526FA05F6AB
:1035400006F00706B6F1040C06D20EEB860CBDE8B9
:1035500070404CF0010C6047DFE80CF0090B0202F0
:103560004FF000414FF00000A1F5002170BD194659
:103570001046012851EB010418BFD4F5001484BF94
:10358000002001F0004170BD0808A0F500114FEACD
:103590003101704791EA030F10B581F000413FF50A
:1035A00047AC83F0004300F009B8000010B591EA81
:1035B000030F48BF83F000433FF53AAC841A71EB28
:1035C000030C07D212198CF0004C43EB0C03001BC8
:1035D00061EB0C01DFF8A4E14FEA1154A4EB135C9A
:1035E0001EEA430F18BF9EEA445F00F0B08023EA52
:1035F0006E03524221EA0451C3EB6E0338BF5B1ED7
:10360000DCF1200E25D322FA0CFE10EB0E0043FA5B
:103610000CFE41EB0E01CCF1200E03FA0EFE10EB76
:103620000E0051F10001CCF1200E29D412FA0EF255
:1036300001EB0451BDE8104058BF7047401C1CBF4F
:10364000B2F1004F704700280CBF491C20F0010068
:10365000704712EB020E43EB030218BF4FF0010E4E
:103660004EEA4202ACF1200CDCF11E0E54D943FAB2
:103670000CFE10EB0E0051F1FF31CCF11E0ED5D532
:103680000EF1010E12FA0EFE404141EB010101EB79
:10369000445C5FEA5C5C10D910EBDE7001EB045116
:1036A00038BFBEF1004FBDE8104018BF704700287A
:1036B0000CBF491C20F00100704730D24FEAD42CD7
:1036C00011F5001124F400641BD0B1FA81F20B3A19
:1036D000A41AA41ED2F12003914030FA03F3194337
:1036E000904001EBCC71002C01EB0451BDE810407F
:1036F000A8BF704701F1C0414FF0000001F0004148
:103700007047B0FA80F310FA03F100D110BDE41A4B
:10371000173C4805C90AE4E701EB045110BD491004
:1037200001EB0451BDE810404FEA300002E04FF0D9
:10373000000170474A0008BF0042F8D0B2F5001FF0
:1037400028BF704701F000414FF0000070479EEA2B
:10375000445F07D011EA5E0FBDE8104004BF0021AE
:1037600000207047BDE8104070B5FFF7BFFE00BFF6
:1037700040DFF63E83F00041104670470000E0FF56
:1037800043004FEAD30C4FEA3C0C43401FBF4007B5
:103790000CF1605113F0FE4F70471CF0006F03D125
:1037A00000200CF0004170470CF0004343EA5070D9
:1037B00010B540EACC0000F0C8F900BF000000924C
:1037C0004FEA0001FFF7E0BE4FF000414FF000006C
:1037D000A1F500217047000090EA010F48BF81F079
:1037E000004100F10482421A3CBF801A89184FEA56
:1037F000D0524FF07F4C1CEA410FA2EBD15318BFBF
:103800009CEA026F00F03B804FF0004C4CEA002035
:103810004CEA012121FA03FC10EB0C0C1ED202F140
:10382000FF325FEA1C2040EBC25038BF70471CF0EB
:103830007F0F4FEA400C18BFBCF17F4F38BF704775
:10384000C3F12003994008BF20F00100BCF17F4F75
:1038500038BF7047A0F1C04000F0BDB94FEA3C004E
:10386000000A40EBC25028BF1CF0FF0F4FEA400C8B
:10387000E6D018BFBCF17F4F38BF7047EAE79CEA3B
:10388000026F05D010EA5C0F08BF00F000407047DF
:1038900010B500F05AF900BF64FBBE3E4FF47F0C38
:1038A0001CEAD0121EBF1CEAD11392EA0C0F93EA55
:1038B0000C0F00F0858090EA010F48BF42F480723F
:1038C00040F4000C41F400002CF07F4120F07F40D8
:1038D00000B58142A2EB03020FF2081CACEB504E84
:1038E000C0F100009EF800E04FEA4E0E00FB0EFC17
:1038F00038BF49004FEA2C1C02F5FA020CFB0EF30C
:103900004FEACE1E4FEA112C4FEAC1210EEB635E47
:1039100042EB22420EFB0CFC4FEA1C5300FB03114E
:103920004FEA112C4FEA01310EFB0CFC4FEADC4C44
:1039300000FB0C11C14228BF09184CEB03335DF8A2
:1039400004EB10EB410143EBC250B2F57C0F38BFE2
:10395000704729D512F0F00F1CBF00F1C04000F0F5
:1039600000407047008182838485868788898B8C9C
:103970008D8E8F919293959697999A9C9D9FA0A2D8
:10398000A3A5A7A8AAACAEB0B2B3B5B7B9BCBEC028
:10399000C2C5C7C9CCCED1D4D7D9DCDFE2E6E9ECC9
:1039A000F0F3F7FAFE0000004FEA400C0CF1807CC7
:1039B000BCF17E4F28BF7047B0F1C04000F00BB99A
:1039C00090EA010F0CEAD11348BF42F480726245BD
:1039D00038BF634507D213F47F0F16D080EA010089
:1039E00000F00040704710B500F0AFF8097EFC3ED3
:1039F00000F005B880EA010000F00040704780EA5E
:103A0000010000F0004000F0E6B812F47F0F04BFA0
:103A10000248704780EA010000F0DDB80000C07F76
:103A2000B0FA80F310FA03F2C3F19D030AD0D9056E
:103A300001EB1220530638BF704700F1010008BFA8
:103A400020F00100704700004FF47F0C1CEAD012F8
:103A50001EBF1CEAD11392EA0C0F93EA0C0F00F080
:103A6000478090EA010F48BF42F480724FF0004C4B
:103A70004CEA00204CEA012102EB0302A0FB0113F7
:103A8000A2F50002002918BF43F001035B0028BF24
:103A90004FEA330342EB22425FEA132C4CEBC25055
:103AA0002EBFBCEB436FB2F57C0F70474FEA036C3F
:103AB000BCF1004F08BF20F00100B2F57C0F38BF09
:103AC00070470BD582F0FF0212F5803FC8BF7047E8
:103AD00000F1C040D8BF00F00040704700F5000C76
:103AE0005FEA4C0C48BF7047B0F1C04000F073B8BB
:103AF00090EA010F0CEAD11348BF42F4807262458C
:103B000038BF634504D280EA010000F000407047EE
:103B100010B500F01AF800BF8900013E00F007B8A8
:103B200000F009B85FEA410C5FEA1C6C08D080EA3B
:103B3000010000F050B85FEA400C5FEA1C6CF6D15F
:103B40004FF00040A0F5800070470EF1020E2EF0FD
:103B5000030E5EF8044B244204D44FEA4102B2F152
:103B60007F4F11D84FEA4003B3F17F4F0CD80ED1ED
:103B70004FEAD07CB2F17F4F0CEB4C0C0CF1020CF5
:103B800008BF4CEBD17C04E04FF0080C01E04FEA99
:103B9000D17C0CEB4C0324FA03F404F00704B4F1D9
:103BA000040C06D20EEB840CBDE810404CF0010C66
:103BB0006047DFE80CF0070802024FF00040A0F574
:103BC000800010BD0846420018BFD2F1807288BF45
:103BD00000F0004010BDFF2141EAD050C005704701
:103BE00090EA010F48BF81F000413FF5FCAD421A59
:103BF00004D882F00042A0EB020011444FEAD052F8
:103C00004FF07F4C1CEA410FA2EBD15318BF9CEA46
:103C1000026F4AD04FF0004C4CEA00204CEA0121E0
:103C200021FA03FCB0EB0C0C0FD412F0FE0F36D0CF
:103C30005FEA4C001DD5001240EBC25038BF704700
:103C40001CF03F0F18BF70470BE0A2F101025FEAC2
:103C50001C2040EBC25038BF70471CF07F0F18BFCC
:103C60007047C3F12003994014BF401E20F00100AB
:103C7000704780084FEA122308BF7047B0FA80FCF3
:103C8000A2EB0C02CCF1280C60FA0CF093EA122F94
:103C900004BF00EBC25070474FEAC3707047130A6D
:103CA0005FEADC1008BF7047F6E79CEA026F04D0B9
:103CB00010EA5C0F08BF0020704710B5FFF745FF02
:103CC00040DFF63E81F000407047FCF710BF000077
:103CD000000000000000002F0000000007000700A7
:103CE00000147F147F1400242A7F2A1200626408C3
:103CF0001323003649552250000005030000000040
:103D00001C224100000041221C000014083E08143F
:103D10000008083E0808000000A060000808080825
:103D20000808000060600000002010080402003E47
:103D30005149453E0000427F4000004261514946E2
:103D4000002141454B31001814127F1000274545D2
:103D50004539003C4A4949300001710905030036E4
:103D60004949493600064949291E000036360000F7
:103D7000000056360000081C2A49080800141414D4
:103D800014140808492A1C080002015109060032CF
:103D90004959513E007C1211127C007F4949493635
:103DA000003E41414122007F4141221C007F4949A0
:103DB0004941007F09090901003E4149497A007FD4
:103DC0000808087F0000417F4100002040413F017A
:103DD000007F08142241007F40404040007F020CD9
:103DE000027F007F0408107F003E4141413E007F7A
:103DF00009090906003E4151215E007F0919294643
:103E00000046494949310001017F0101003F40401E
:103E1000403F001F2040201F003F4038403F0063CC
:103E200014081463000708700807006151494543EE
:103E300000007F41410000552A552A5500004141AC
:103E40007F000402FF020400002040FF4020000029
:103E500001020400002054545478007F4844443840
:103E600000384444442000384444487F00385454C7
:103E7000541800087E0901020018A4A4A47C007F45
:103E8000080404780000447D4000004080847D00E8
:103E9000007F102844000000417F4000007C04188F
:103EA0000478007C0804047800384444443800FC5A
:103EB000242424180018242418FC007C0804040876
:103EC00000485454542000043F444020003C4040EB
:103ED000207C001C2040201C003C4030403C004422
:103EE00028102844001CA0A0A07C004464544C442A
:103EF000141414141414BAE3CDD8BFC6BCBCB5E76F
:103F0000B5F7D0A3D7BC00E000FF102002F29292D8
:103F1000929292F2020000FF0000404F4444444459
:103F2000444F401010FF1090040484E49C84848467
:103F30000444827F01040201FF40404040FF00240E
:103F4000A4FEA3220022CC0000FF0000000601FF17
:103F500000010404040404FF0202021010FF109088
:103F600008888888FF8888880844827F018080408C
:103F7000432C102846818000F888888888FF88882C
:103F80008888F80000001F080808087F888888884B
:103F90009F80F042CC0000FE829292FE929282FEBE
:103FA00000003F10887F001E1212125E807F0010FA
:103FB000D0FF9010804828090E082848880300FF89
:103FC00000018080432C102C438080020CE04020B4
:103FD000F84F4849FE48484808047F000000FF2287
:103FE00022223F22222220000000000000000000C8
:103FF00000000000000000000000F80000000000C9
:104000000000333000000000100C06100C06000009
:104010000000000000000040C07840C0784000046C
:104020003F04043F040400007088FC0830000000D6
:104030001820FF211E0000F008F000E0180000002A
:10404000211C031E211E0000F00888700000001EC5
:104050002123241927211010160E00000000000053
:1040600000000000000000000000E0180402000052
:104070000000071820400000020418E000000000C3
:1040800040201807000000404080F08040400002BF
:1040900002010F01020200000000F0000000000118
:1040A00001011F010101000000000000000000806C
:1040B000B0700000000000000000000000000000E0
:1040C00001010101010101000000000000000000E9
:1040D0003030000000000000000000806018040084
:1040E0006018060100000000E010080810E0000061
:1040F0000F102020100F00001010F800000000002A
:1041000020203F2020000000700808088870000070
:1041100030282422213000003008888848300000F0
:1041200018202020110E000000C02010F800000010
:10413000070424243F240000F808888808080000A9
:1041400019212020110E0000E010888818000000BE
:104150000F112020110E0000380808C83808000090
:1041600000003F0000000000708808088870000010
:104170001C222121221C0000E010080810E0000091
:1041800000312222110F00000000C0C0000000001A
:10419000000030300000000000008000000000003F
:1041A0000080600000000000008040201008000037
:1041B00001020408102000404040404040400004FC
:1041C00004040404040400000810204080000000DF
:1041D00020100804020100007048080808F00000E0
:1041E00000003036010000C030C828E810E00007A9
:1041F00018272423140B000000C038E00000002022
:104200003C23020227382008F888888870000020A4
:104210003F202020110E00C0300808080838000791
:104220001820202010080008F808080810E00020D6
:104230003F202020100F0008F88888E80810002090
:104240003F20202320180008F88888E80810002064
:104250003F200003000000C03008080838000007B5
:10426000182020221E020008F808000008F8082084
:104270003F210101213F20000808F8080800000044
:1042800020203F2020000000000808F8080800C097
:104290008080807F00000008F888C028180800206F
:1042A0003F20012638200008F80800000000002008
:1042B0003F20202020300008F8F800F8F8080020FF
:1042C0003F003F003F200008F830C00008F80820F9
:1042D0003F200007183F00E01008080810E0000F1A
:1042E00010202020100F0008F808080808F000200F
:1042F0003F210101010000E01008080810E0000F54
:1043000018242438504F0008F888888888700020C6
:104310003F2000030C302000708808080838000097
:1043200038202121221C00180808F808081800006D
:1043300000203F2000000008F808000008F80800EE
:104340001F202020201F000878880000C83808009F
:104350000007380E010000F80800F80008F8000314
:104360003C0700073C030008186880806818082094
:10437000302C03032C30200838C800C8380800004F
:1043800000203F2000000010080808C8380800205E
:1043900038262120201800000000FE020202000042
:1043A00000007F40404000000C30C00000000000D2
:1043B0000000010638C00000020202FE00000000FA
:1043C0004040407F000000000004020202040000A0
:1043D000000000000000000000000000000000805D
:1043E0008080808080808000020204000000000045
:1043F00000000000000000000080808080000000BD
:1044000019242222223F2008F800808000000000AA
:104410003F112020110E000000008080800000006D
:104420000E112020201100000000808088F800007C
:104430000E112020103F20000080808080000000AE
:104440001F222222221300008080F0888888180012
:1044500020203F202000000000808080808000001D
:104460006B94949493600008F80080808000002092
:104470003F210000203F20008098980000000000AD
:1044800020203F20200000000000809898000000BD
:10449000C08080807F000008F800008080800020BD
:1044A0003F24022D302000000808F8000000000022
:1044B00020203F202000008080808080808000209D
:1044C0003F20003F20003F8080008080800000204F
:1044D0003F210000203F20000080808080000000FD
:1044E0001F202020201F008080008080000000808E
:1044F000FFA12020110E00000000808080800000BD
:104500000E112020A0FF808080800080808000200D
:10451000203F21200001000000808080808000007A
:1045200033242424241900008080E08080000000CF
:1045300000001F202000008080000000808000001C
:104540001F202020103F208080800000808080007D
:10455000010E300806010080800080008080800FFE
:10456000300C030C300F0000808000808080000041
:1045700020312E0E312000808080000080808080DD
:10458000818E70180601000080808080808000008D
:1045900021302C2221300000000000807C0202002B
:1045A000000000003F404000000000FF000000004D
:1045B000000000FF0000000002027C8000000000FC
:1045C00040403F000000000000000000008080002C
:1045D00000000000000101000000000000000000D9
:1045E00000000000000000000000000000000000CB
:1045F00000000000000000000000000000000000BB
:1046000000000000000000181C3C3C7CFC3C3C7C92
:10461000D8000000000000000000000000000000C2
:10462000000000000000000000000000000000008A
:10463000000000000000000000000000000000007A
:10464000000000000000000000000000000000006A
:10465000000000000000000000000000000000005A
:10466000000000000000000000000000000000004A
:1046700000000000002060E0C0C0C0C080C080001A
:10468000000000000000000000000000FF8040204B
:104690001F000000000000000000000000000000FB
:1046A000000000000000000000000080C08080C00A
:1046B000C0C0C060600000000000000000000000FA
:1046C00000000000000000000000000000000000EA
:1046D00000000000000000000000000000000000DA
:1046E00000000000000000000000000000000000CA
:1046F000000000000000000000010119FFFFFFFFA3
:1047000073F2F6E4E4ECC8C8C0C080F0FFF0E0F05B
:10471000D0D8FCFEFFFFFFFFFCC0C0C0E0E0F0F01F
:10472000E0C0C0C4E4E4E2F2727BFFFFFFFF1901C6
:104730000101000000000000000000000000000077
:104740000000000000000000000000000000000069
:104750000000000000000000000000000000000059
:1047600000000080808080808080C040C0F0F8F031
:10477000F0E060F0F0707070703030303FBF9F98A4
:10478000988888C9C9C3C3E7EFFFFFFFFFFFFFFF9A
:10479000FFFFFFFFFFFFFFFFFFFFFFFFFFFFFFFF29
:1047A000FFFFF7E3E3C1C9C8C8C8999F9F9FB83806
:1047B000383030307070707070F0F8F8F8F0E060F9
:1047C0004040404040C0C0C0808080808080808069
:1047D00000000000000000060202020203030301C1
:1047E000010101010101010100002070FFFFFFFF35
:1047F000FFFFFE7E3E3E3E3E3F1F1F1F1F1F1F1F2F
:104800000F0F0F0F0F0F07030101010103878F8F98
:104810008F87BFFFFFFFFFFFFFDF87878F87810342
:10482000030101010107070F0F0F0F1F1F1F1F1F9C
:104830001F1F1F3F3F3E3E3C7FFFFFFFFFFFFF3834
:104840001000000000000000000000000001010155
:104850000101010101010100000000000000000051
:1048600000000000000000000000000003FFFFFF48
:10487000FF1F010000000000000000000000000019
:10488000000000000000000000000000003F3F3F6B
:104890003F3F3F7FFFFFFFFFFFFFFFFFFFFFFF1FC8
:1048A0000000000000000000000000000000000008
:1048B00000000000000000000003FFFFFFFF0300F6
:1048C00000000000000000000000000000000000E8
:1048D00000000000000000000000000000000000D8
:1048E0000000000000000000000000000007FFFFC3
:1048F000FF000000000000000000000000000000B9
:1049000000000000000000000000000000000000A7
:104910000000000000000000000000000000000097
:104920000000000000000000000000000000000087
:104930000000000000000000000003FFFF03000073
:104940000000000000000000000000000000000067
:104950000000000000000000000000000000000057
:104960000000000000000000000000000000F0FF58
:10497000FFF0C00000000000000000000000000088
:104980000000000000000000000000000000000027
:104990000000000000000000000000000000000017
:1049A0000000000000000000000000000000000007
:1049B000000000000000000000007C7F7F78000005
:1049C00000000000000000000000000000000000E7
:1049D000000000000000000000F888888888FF8838
:1049E000888888F800000000000000000000000037
:1049F0000000000000000000001F080808087F8871
:104A00008888889F80F000000000000000000000FF
:104A1000000000000000000000FE0282828282FA94
:104A200082828282820200000000000000000000FA
:104A30000000000000000080601F40404040407FB8
:104A400040404458404000000000000000000000CA
:104A5000000000000000000000F888888888FF88B7
:104A6000888888F8000000000000000000000000B6
:104A70000000000000000000001F080808087F88F0
:104A80008888889F80F0000000000000000000007F
:104A9000000000000000001060028C004464544DCF
:104AA00046445464C40400000000000000000000FC
:104AB0000000000000000004047E0180403E000071
:104AC000FE00007E80E0000000000000000000000A
:104AD00000000000000000404042CC0040A09E8248
:104AE00082829EA020200000000000000000000044
:104AF000000000000000000000003F908840432CB0
:104B000010284641808000000000000000000000E6
:104B100000000000000000100C4444444445C6441A
:104B200044444444140C0000000000000000000055
:104B3000000000000000008040201E2040407F4414
:104B400044444444404000000000000000000000D5
:104B5000000000000000001060028C00FE02F20263
:104B6000FE00F800FF000000000000000000000050
:104B70000000000000000004047E018047300F1098
:104B8000270047807F0000000000000000000000B8
:104B900000000000000000202020BEAAAAAAAAAAA5
:104BA000AAAABE2020200000000000000000000093
:104BB00000000000000000008080AFAAAAAAFFAA9F
:104BC000AAAAAF80800000000000000000000000E2
:104BD00000000000000000000000000000000000D5
:104BE0003031323334353637383941424344454623
:104BF000403058003031323334353637383961621D
:104C0000636465664030780004000008000000001E
:104C1000000000020001000010000000024000003F
:104C2000000000A00000000005400000000000C8D7
:104C3000000000000C4000000000409C000000004C
:104C4000194000000020BCBE0000000034400000FD
:104C5000BFC91B8E00000004B5400000504BCFD0F0
:104C60006607E2CF010000006C4100003E8251AABD
:104C7000DFEEA73401000000D9420000DCB5A0E25D
:104C80003A301F97FFFFFFFFB4450000FD25A0C885
:104C9000E9A3C14FFFFFFFFFFF3F000000000080BE
:104CA00000000000FF3F0000000000800000000046
:104CB000FC4D00080000002038000000280100081A
:104CC000344E00083800002080060000440100082F
:104CD0001C00000043000000F8FFFFFF0C00000074
:104CE0000E0000000F0000002E0000001001000068
:104CF00043000000F8FFFFFF0040404040404040BC
:104D0000404041414141414040404040404040409E
:104D10004040404040404040400502020202020242
:104D20000202020202020202022020202020202091
:104D300020202002020202020202909090909090A5
:104D40001010101010101010101010101010101063
:104D500010101010020202020202888888888888D7
:104D600008080808080808080808080808080808C3
:104D700008080808020202024000000000000000CB
:104D80000000000000000000000000000000000023
:104D90000000000000000000000000000000000013
:104DA0000000000000000000000000000000000003
:104DB00000000000000000000000000000000000F3
:104DC00000000000000000000000000000000000E3
:104DD00000000000000000000000000000000000D3
:104DE00000000000000000000000000000000000C3
:104DF00000000000000000000000000000000000B3
:104E000000A24A04000000000000000001020304A8
:104E10000607080900000000000000000000000074
:104E2000000001020304010203040607080902044A
:044E30000608000070
:0400000508000235B8
:00000001FF
